:020000040800F2
:10000000A00600200501000853110008FF0F00089A
:1000100051110008AD010008691E00080000000031
:100020000000000000000000000000003112000885
:10003000AF0100080000000055110008331200084D
:100040001F0100081F0100081F0100081F01000810
:100050001F0100081F010008B10100081F0100086E
:100060001F0100081F0100081F0100081F010008F0
:100070001F0100081F0100081F0100081F010008E0
:100080001F0100081F0100081F0100081F010008D0
:100090001F0100081F0100081F0100081F010008C0
:1000A0001F0100081F0100081F0100081F010008B0
:1000B0001F0100081F0100081F0100081F010008A0
:1000C0001F0100081F0100081F0100081F01000890
:1000D0001F0100081F0100081F0100081F01000880
:1000E0001F0100081F0100081F010008DFF810D0E1
:1000F00000F04AF800480047D1210008AFF3008023
:10010000A00600200648804706480047FEE7FEE7B5
:10011000FEE7FEE7FEE7FEE7FEE7FEE7FEE7FEE7B7
:100120008F120008ED000008202A04DB203A21FA93
:1001300002F00021704721FA02F3D040C2F1200200
:100140009140084319467047D2B201E000F8012BF4
:10015000491EFBD270470022F6E710B513460A4647
:1001600004461946FFF7F0FF204610BD30B504469F
:100170000020034600E05B1C934203D2E05CCD5CB0
:10018000401BF8D030BD0000064C074D06E0E0688B
:1001900040F0010394E8070098471034AC42F6D3CE
:1001A000FFF7A8FF2425000844250008FEE7704754
:1001B000012000F051B9000006490020C86106483E
:1001C000016941F004010161016941F040010161EF
:1001D000704700008002002000200240064A0021F3
:1001E000D16106490A6942F002020A614861086960
:1001F00040F040000861704780020020002002406B
:10020000044B0022DA61044A136943F001031361CD
:100210000180704780020020002002401448002224
:10022000C168CB06134904D5CA6942F00202CA610B
:100230001022C3685B0705D5CB6943F00103CB618E
:1002400042F00402C369DB0707D0CB6943F0040323
:10025000CB61C16921F00101C161A2F58071013951
:1002600001D0C2607047C16921F00101C1617047CE
:10027000002002408002002070B5054600F0F2F92F
:100280000646114C09E0681C07D025B100F0EAF9D8
:10029000801BA84201D9032070BDE068C007F2D1DD
:1002A000E068800601D52020E060E068C00605D443
:1002B000E069C00702D1E068400703D5FFF7AEFF51
:1002C000012070BD002070BD0020024070B50446C2
:1002D00000F0C8F90546601C02D0044800780444C8
:1002E00000F0C0F9401BA042FAD370BD18000020F6
:1002F0002DE9F047054626480F460126017E0129D3
:100300000FD00121814601762868DFF888804CF201
:100310005034022808D0A2462046FFF7ADFFA8B10E
:1003200031E00220BDE8F0872046FFF7A5FF08BBBB
:100330000120FFF741FF2046FFF79EFFD8F810107D
:10034000064621F00401C8F810101CE04FF0FF3001
:100350003860AC6811E02046FFF740FF5046FFF7D9
:100360008BFFD8F81010060021F00201C8F8101019
:1003700001D03C6007E004F58064D5E9020100EBA0
:100380008120A042E7D8002189F818103046C9E73B
:1003900080020020002002400348016941F08001F2
:1003A0000161002070470000002002402DE9F05F4D
:1003B00007461C4888460024017E15461E46012932
:1003C00009D00121814601764CF2503A5046FFF7A0
:1003D00053FF18B122E00220BDE8F09F012F02D0A8
:1003E000022F00D00427D346DFF83CA02201284684
:1003F0003146FFF799FE81B208EB4400FFF700FF9A
:100400005846FFF739FFDAF8102022F00102CAF847
:10041000102018B9641CE4B2BC42E7D3002289F86A
:100420001820D9E780020020002002400649002061
:100430000A69120607D5054A4A60054A4A600969F1
:10044000090600D5012070470020024023016745BE
:10045000AB89EFCD70470000044910B50A6802422D
:1004600002D00860FFF7F6FF10BD00001404014041
:100470002DE9F84FDFF8B891002409F1040A0AF1D8
:10048000040B23460F270BF1040EC9E00125A540FC
:100490002A40AA427DD1674ED1F804C0ACEB0608D1
:1004A000B44532D014DCBCF1030F3AD009DCBCF106
:1004B000000F2AD0BCF1010F1CD0BCF1020F31D1CA
:1004C0001DE0BCF1110F17D0BCF1120F2AD119E0B9
:1004D000B8F5881F19D006DCB8F5803F15D0B8F5FF
:1004E000801F1FD111E0B8F5001F0ED0B8F5041F12
:1004F00018D10AE0CB6815E0CB681B1D12E0CB6871
:1005000008330FE0CB680C330CE08B682BB1012B68
:100510004FF0080303D0456104E0042302E00561C5
:1005200000E00023FF2A01D8064601E000F104069E
:100530004FEA840501D9A5F12005D6F8008007FA15
:1005400005FC28EA0C0803FA05F548EA0508C6F890
:1005500000804D68ED0062D5374DAE6946F001066A
:10056000AE61AD6924F0030605F001050095334D39
:1005700006EB050CDCF80850A607360F07FA06F85C
:1005800025EA0805DFF8B880404503D14FF00008A0
:1005900017E044E0DFF8AC80404502D14FF001089D
:1005A0000FE0DFF8A480404502D14FF0020808E0D8
:1005B000DFF89880404502D14FF0030801E04FF08A
:1005C000040808FA06F848EA0508CCF808804D68DF
:1005D000D9F80060ED034D4601D5164300E096437F
:1005E0002E604D68DAF80060AD03554601D516431C
:1005F00000E096432E604D68DBF80060ED025D463A
:1006000001D5164300E096432E604D68DEF8006089
:10061000AD02754601D5164300E096432E60641C7A
:100620000D682A46E5407FF431AFBDE8F88F000041
:1006300000040140000011100010024000000140C1
:1006400000080140000C014000100140001401406E
:100650008068084000D0012070470AB101617047EE
:100660000904FBE70148806870470000180000207B
:1006700002488168027811448160704718000020A8
:10068000074810B5016841F010010160032000F037
:1006900075F8002000F006F800F024F8002010BDE6
:1006A0000020024070B50D4D04464FF47A71287851
:1006B000B1FBF0F00A490968B1FBF0F000F04FFC23
:1006C00048B9102C07D200222146501E00F036F8FF
:1006D00000206C6070BD012070BD0000180000207B
:1006E000240000200C4808B5816941F001018161B6
:1006F000816901F001010091C16941F08051C1613E
:10070000C06900F0805000900448416821F0E06129
:1007100041F00071416008BD00100240000001403E
:10072000002809DB00F01F020121914040098000F0
:1007300000F1E020C0F8001170470000F0B40E4B4B
:100740001B680C46C3F30223C3F10705042D00D92F
:100750000425191D072901D2002300E0DB1E012614
:1007600006FA05F1491E214099409E40761E16402A
:100770003143F0BC01F079BB0CED00E0064900F01C
:10078000070208684FF6FF03184040EA0220034AB8
:1007900010430860704700000CED00E00000FA050F
:1007A0002DE9F0470F46050061D0434E306800F058
:1007B0000700B84209D2306820F0070038433060A3
:1007C000306800F00700B84251D128683B4C8107DF
:1007D00012D5400703D5606840F4E0606060287877
:1007E000000703D5606840F4605060606068A968E5
:1007F00020F0F000084360602878C00728D06868BF
:10080000012810D02168022810D0890700292EDA8B
:10081000616821F0030101436160FFF723FF804617
:1008200041F288390DE021688903EFE78901EDE79E
:10083000FFF718FFA0EB0801494502D90320BDE8E6
:10084000F0876068696800F00C00B0EB810FEFD1B1
:10085000306800F00700B8420BD9306820F007007C
:1008600038433060306800F00700B84201D0012002
:10087000E5E72878400705D56068E96820F4E0607E
:10088000084360602878000706D56068296920F46D
:10089000605040EAC100606000F018F86168084AE2
:1008A000C1F30311515CC84006490860064800685E
:1008B000FFF7F8FE0020C2E70020024000100240CF
:1008C00014250008240000201C00002012A185B07F
:1008D0000FC98DE80F0014A0144A006804905168F5
:1008E000134801F00C03042B10D0082B0ED1C1F3D8
:1008F0008343C9031DF803000AD5516804AAC1F354
:100900004041515C0A4A5043B0FBF1F005B07047DA
:1009100008494843FAE700000203040506070809EE
:100920000A0B0C0D0E0F1010010200000010024007
:1009300000127A0000093D002DE9F84F040070D044
:100940002078C04DC00749D06868C0F381000128F5
:1009500007D06868C0F38100022809D16868C00325
:1009600006D52868800339D560680028E7D035E0CF
:100970006068B0F5803F0BD010B1B0F5A02F11D05A
:10098000286820F480302860286820F4802002E065
:10099000286840F480302860606890B1FFF762FEFC
:1009A00006460AE0286840F480202860F0E700BF8F
:1009B000FFF758FE801B642873D828688003F7D59A
:1009C0000CE0FFF74FFE064605E000BFFFF74AFECA
:1009D000801B6428F0D828688003F7D420789A4ECA
:1009E00080074FF001094FF0000839D5686810F012
:1009F0000C0F07D06868C0F38100022809D168682D
:100A0000C00306D42868800714D52069012808D1BE
:100A100010E02069B0B1C6F80090FFF723FE07464A
:100A200005E00AE1FFF71EFEC01B0228C4D82868B3
:100A30008007F7D52868616920F0F80040EAC10016
:100A400028600DE0C6F80080FFF70CFE074604E0C2
:100A5000FFF708FEC01B022823D828688007F7D4B8
:100A6000207800072CD57948A169D9B1C0F8009049
:100A7000FFF7F8FD074604E0FFF7F4FDC01B02286E
:100A80000FD8686A8007F7D571484FF4FA510068AB
:100A9000B0FBF1F0009000BF0098411E0091FAD227
:100AA0000EE080E0C0F80080FFF7DCFD074604E0C0
:100AB000FFF7D8FDC01B022875D8686A8007F7D4F5
:100AC0002078400760D5E8690027C00008D4E869AD
:100AD00040F08050E861E869012700F08050009004
:100AE0005C480168C90513D40168834641F48071EC
:100AF0000160FFF7B7FD824606E000BFFFF7B2FDD9
:100B0000A0EB0A0064284ED8DBF80000C005F5D53C
:100B1000E06801280AD008B1052813D0286A20F01F
:100B200001002862286A20F0040002E0286A40F0F0
:100B300001002862E06841F2883B98B1FFF792FD1E
:100B400082460BE0286A40F004002862EEE700BF0E
:100B5000FFF788FDA0EB0A0159455AD8286A80079B
:100B6000F6D50CE0FFF77EFD824605E0FFF77AFD43
:100B7000A0EB0A0159454CD8286A8007F6D41FB16A
:100B8000E86920F08050E861E06988B36968C1F3E2
:100B90008101022944D00228C6F8608004D0FFF702
:100BA00061FD044638E034E0FFF75CFD074604E0F1
:100BB000FFF758FDC01B02282BD828688001F7D406
:100BC000206AB0F5803F05D16868A16820F4003044
:100BD00008436860D4E908010843696821F4741186
:100BE00008436860C6F86090FFF73CFD044606E0E5
:100BF00025E000BFFFF736FD001B022809D8286852
:100C00008001F7D51BE000BFFFF72CFD001B022879
:100C100002D90320BDE8F88F28688001F4D40EE0E3
:100C20000128F7D06868226A00F48031914204D12B
:100C3000616A00F47010884201D00120EAE70020C8
:100C4000E8E70000001002400000424280044242F7
:100C5000240000200070004070B5040009D0606AD4
:100C6000002540B125616561A56294F8510040B14D
:100C70000CE0012070BD6068B0F5827FF4D0E561C2
:100C8000F2E784F85050204600F040F8022084F843
:100C900051002068016821F040010160A08821898D
:100CA00000F4827001F404410843A18901F4006159
:100CB0000843217C01F002010843217D01F001017C
:100CC0000843218B01F400710843217F01F03801B2
:100CD000084394F8201001F080010843218D01F4AD
:100CE0000051084321680860A069042101EA10400E
:100CF000216848602068C16921F40061C1616565AF
:100D0000012084F85100002070BD000030B585B08E
:100D100000240094019402940394006814498842CA
:100D200023D11448816941F480518161816901F4C2
:100D300080510491816941F00401816180690E4D07
:100D400000F004000490A0200090022001900320F5
:100D5000039069462846FFF78BFB4020CDE900044D
:100D6000694628460294FFF783FB05B030BD0000BA
:100D70000030014000100240000801402DE9F84F0A
:100D8000044690F8500000270A9E1D4692468B4666
:100D90004FF0010901280ED0012084F85000FFF720
:100DA00061FC804694F85100616801280CD0B1F5CF
:100DB000827F07D102E00220BDE8F88FA16809B95F
:100DC000042801D00227C2E0BBF1000F27D0BAF1FE
:100DD000000F24D01DB394F85100042802D0052040
:100DE00084F8510000206065C4F838A0E587A58725
:100DF000C4F830B0E586A586206460642068016888
:100E0000490603D4016841F040010160E068B0F593
:100E1000006F606805D0E8B3012D46D07FE0012760
:100E200095E008B1012D39D1206B21680088C86098
:100E3000206B801C2063E08E401EE0862EE0206840
:100E4000816889070FD5E18E69B1B9F1010F0AD127
:100E5000216B0988C160206B801C2063E08E401EDE
:100E6000E0864FF0000920688168C9070CD0E18F47
:100E700051B1C068A16B0880A06B801CA063E08F9B
:100E8000401EE0874FF00109FFF7ECFBA0EB0800E4
:100E9000B04200E009E001D3701C50D1E08E002880
:100EA000CDD1E08F0028CAD13FE0206B21680078C7
:100EB0000873206B401C2063E08E401EE0862EE00D
:100EC0002068816889070FD5E18E69B1B9F1010FFA
:100ED0000AD1216B09780173206B401C2063E08EDE
:100EE000401EE0864FF0000920688168C9070CD0D9
:100EF000E18F51B1C068A16B0870A06B401CA0636A
:100F0000E08F401EE0874FF00109FFF7ABFBA0EB3D
:100F10000800B04202D3701C01D010E07EB1E08E18
:100F20000028CDD1E08F0028CAD142463146204664
:100F300000F011F928B101272020606507E00327A0
:100F400005E0A06818B92068C16880680090012099
:100F500084F85100002084F8500038462CE710B582
:100F6000401EB0F1807F01D3012010BD4FF0E0247E
:100F700060610F21601700F078FF0020A06107205A
:100F80002061002010BD10B586B00446FFF74EFA70
:100F90000120CDE9024001900020009004A968469C
:100FA000FFF7A6F9FFF7F8F906B010BD10B500235A
:100FB000521C05E030F813405B1C21F8024B9BB239
:100FC000B3EB520FF6D310BD2DE9F04116460D4696
:100FD0000746FFF72BFA0024761C09E02A8807EB66
:100FE000440100230120FFF7E1F9641CA4B2AD1C09
:100FF000B4EB560FF2D3BDE8F041FFF7CDB9FEE7F1
:101000002DE9F04786B000263C48009601960296EE
:101010000396816941F010018161816901F010013D
:101020000491816941F004018161816901F0040149
:101030000491816941F0080181618069DFF8C08015
:1010400000F008004FF4005404900022214640466E
:10105000FFF703FBDFF8AC90002249F61E7148460B
:10106000FFF7FBFADFF8A0A04FF450470022394603
:101070005046FFF7F2FA00940124022569464046E3
:101080000194CDE90245FFF7F3F920486946CDE91F
:10109000004048460294FFF7EBF941F20E00009041
:1010A00001AA112082E8310069464846FFF7E0F9BD
:1010B00048F61070CDE9000469464846CDE902457E
:1010C000FFF7D6F940F60340CDE9000669460294E1
:1010D0005046FFF7CDF9CDE9007469465046CDE999
:1010E0000245FFF7C5F9002201210620FFF726FB84
:1010F0000620FFF715FB06B0BDE8F08700100240A0
:101100000010014000080140000C014000002110C7
:101110000E4810B50C4901604FF482714160002106
:101120008160C1604FF400720161C0E90512C161C4
:101130000162416281620A21C162FFF78DFD0028D0
:1011400001D072B6FEE710BD003001402802002039
:10115000FEE7FEE7704738B50B46009204460022D2
:10116000802100F009F8002804D0606D40F02000D4
:101170006065032038BD00002DE9F8431E46914606
:1011800088460446089DFFF76DFA401B351AFFF7A5
:1011900069FA074625480068C0F3CB30684338E059
:1011A000701C37D0FFF75EFAC01BA84203D215B1FE
:1011B000009860B32CE02068416821F0E0014160B4
:1011C0006068B0F5827F0BD1A068B0F5004F02D007
:1011D000B0F5806F04D12068016821F04001016002
:1011E000A06AB0F5005F09D12068016821F40051C0
:1011F00001602068016841F400510160012084F819
:101200005100002084F850000320BDE8F883002539
:10121000401E00902068816838EA010004D0002157
:101220004945BDD10020F0E70121F9E72400002065
:101230007047FFF71DBA30B58FB028216846FEF71A
:101240008AFF14210AA8FEF786FF012002250490D8
:101250000095102005900024CDE9075468460994B4
:10126000FFF76AFB08B172B6FEE70F20CDE90A0569
:101270004FF48060CDE90C4000210AA80E94FFF7DE
:101280008FFA002801D072B6FEE70FB030BD70476C
:1012900010B5142000F05AF8800705D10321BDE8ED
:1012A0001040142000F089B810BD7CB5044600251C
:1012B00029460D2000F018F993202070202060703E
:1012C00001A823460090022219460C2000F081F864
:1012D000010009D1225C401C5540C0B20428F9D35A
:1012E000205CA84200D0022108467CBD70B50C46A7
:1012F000054600F02BF820EA04012846BDE87040BE
:1013000000F0F2B810B500F054F88D212A2000F05A
:10131000EBF83E212B2000F0E7F81E212D2000F0F5
:10132000E3F800212C2000F0DFF87021262000F0E7
:10133000DBF84021152000F0D7F83D21112000F006
:10134000D3F8BDE81040FFF7A3BF000070B50C4D07
:101350000446002210212846FFF77FF97E2000EA8C
:10136000440040F0800000F0D9F8002000F0D6F8EA
:101370000446012210212846FFF76FF9204670BD70
:10138000000801407CB50C46054607210D2000F001
:10139000ABF8257001A823460090012219460C20C5
:1013A00000F017F818B9BDF80410102900D0022079
:1013B0007CBD0F21012000F097B870B50C460546A2
:1013C000FFF7C4FF40EA04012846BDE8704000F082
:1013D0008BB82DE9FF5F00270226DDF838A01546FF
:1013E0008B468146B8460C2805D0B9F10E0F05D1C1
:1013F0001227102001E077273020804647F0800137
:10140000022000F071F880210420FFF76FFF802197
:101410000A20FFF7D2FF0021012000F065F8002428
:1014200006E01BF80410092000F05EF8641CA4B26A
:10143000AC42F6D34946012000F056F8B9F10C0F42
:1014400003D180210D20FFF7B8FF4FF4FA65042087
:10145000FFF77CFF6D1E2D0404462D0C04D0E00721
:1014600002D114EA080FF2D080210D20FFF73EFFD1
:1014700035B10620FFF76AFF10F01B0F04D00226DB
:1014800004B03046BDE8F09F00263C40E00700D0A5
:101490000126B9F10C0FF3D10A20FFF757FF0446DC
:1014A0000C20FFF753FF10F007004FEAC40104D0EF
:1014B00008390844AAF8000001E0AAF8001024B195
:1014C000102C04D91024002503E00124FBE700259B
:1014D00006E00920FFF73AFF039948556D1CADB2AD
:1014E000A542F6D3CCE7000070B50B4D0E4604467E
:1014F000002210212846FFF7B0F87E2000EA4400C1
:1015000000F00CF8304600F009F82846BDE87040BD
:1015100001221021FFF7A1B8000801403EB50B4C95
:101520008DF80400206881688907FCD50A200090A6
:10153000012302AA01A90548FFF720FC2068816861
:101540000906FCD49DF808003EBD000028020020DA
:101550007CB500240D460094694626200194FFF7CF
:1015600011FF00282CD16846FFF79FFE002827D1E5
:10157000684600F083FFA0F57F414FF4FA66FF391B
:101580001FD02C700021012000F048FD15A000F0B4
:1015900095FD0021012000F041FD16A000F08EFD18
:1015A0003046FEF793FE00F035FD0021084600F0BE
:1015B00035FD14A000F082FD0021012000F02EFD79
:1015C0007CBD684600F026FF2C700021012000F051
:1015D00025FD04A000F072FD0021012000F01EFD99
:1015E0000CA0DBE72020202020202020202020200D
:1015F00020202000616C72656164792065786973D0
:1016000074000000444F4F522050415353574F52E3
:1016100044000000306B00002DE9F05F0D46DDE96D
:101620000A4B80469A46174600210120DDF830908B
:1016300000F0F4FC002606E019F80610012000F086
:1016400049FD761CF6B2AE42F6D3B8F1200F73D046
:10165000B8F12A0F70D0B8F1230F6DD02026B8F161
:10166000440F18D0217807F8018022782A2109F840
:1016700002102078401CC0B22070A84200D3284637
:101680002070C820FEF722FE2078A84254D1002006
:101690002070014613E020780028F5D0401EC0B22B
:1016A00020703E54217809F80160EAE71AF800201A
:1016B0003B5C9A4201D1491CC9B2401CC0B2A8424D
:1016C000F4D3A9421DD106218BF80010002004E0BC
:1016D0003E5409F80060401CC0B2A842F8D300F0A4
:1016E00099FC0021084600F099FC14A000F0E6FCEB
:1016F0000021012000F092FCBDE8F05F13A000F093
:10170000DDBC0021012000F089FC15A000F0D6FC12
:101710004FF4FA60FEF7DAFD0021012000F07EFCB4
:1017200013A000F0CBFC002004E03E5409F8006058
:10173000401CC0B2A842F8D3BDE8F09F41444D49D7
:101740004E204D454E553A20000000004164642073
:1017500044656C204368616E20426B70000000009D
:1017600077726F6E672070617373776F7264210098
:101770002020202020202020202020202020200089
:1017800070B5044600780D4600283AD100F0B0FE4E
:1017900000F040FC0021084600F040FC19A000F0D9
:1017A0008DFC0021012000F039FC19A000F086FC1E
:1017B0004FF47A70FEF78AFD0021012000F02EFC24
:1017C00016A000F07BFC0021012000F027FC16A0F1
:1017D00000F074FC4FF4FA60FEF778FD01202070F1
:1017E0000020287000F016FC0021084600F016FCCE
:1017F0000EA000F063FCBDE870400021012000F065
:101800000DBC70BD4241434B5550204441544100F2
:1018100077617474696E672E2E2E000020202020C0
:1018200020202020202000004F4B0000444F4F522A
:101830002050415353574F52440000002DE9F05FB0
:101840000D46DDE90A4B80469A46174600210120E5
:10185000DDF8309000F0E2FB002606E019F80610F3
:10186000012000F037FC761CF6B2AE42F6D3B8F198
:10187000200F6CD0B8F12A0F69D0B8F1230F66D0D1
:101880002026B8F1440F18D0217807F8018022787B
:101890002A2109F802102078401CC0B22070A8420A
:1018A00000D328462070C820FEF710FD2078A842FB
:1018B0004DD100202070014613E020780028F5D09B
:1018C000401EC0B220703E54217809F80160EAE75A
:1018D0001AF800203B5C9A4201D1491CC9B2401C55
:1018E000C0B2A842F4D3A94216D102218BF800104D
:1018F000002004E03E5409F80060401CC0B2A84239
:10190000F8D300F087FB0021084600F087FBBDE814
:10191000F05F10A000F0D2BB0021012000F07EFBA0
:1019200010A000F0CBFB4FF4FA60FEF7CFFC0021D3
:10193000012000F073FB0FA000F0C0FB002004E0CA
:101940003E5409F80060401CC0B2A842F8D3BDE87C
:10195000F09F00004E45572050415353574F52447B
:101960003A20000077726F6E672070617373776F33
:1019700072642100202020202020202020202020F0
:10198000202020007CB500240D46009469462620C6
:101990000194FFF7F7FC00283DD16846FFF785FC6E
:1019A000002838D1684600F069FDA0F57F414FF46A
:1019B000FA66FF3910D0684600F042FD2C70002115
:1019C000012000F02BFB14A000F078FB0021012087
:1019D00000F024FB14A00CE02C700021012000F08A
:1019E0001DFB0DA000F06AFB0021012000F016FB9A
:1019F0000EA000F063FB3046FEF768FC00F00AFB27
:101A00000021084600F00AFB0AA000F057FB002165
:101A1000012000F003FB7CBD20202020202020207E
:101A20002020202020202000306B0000696E76618D
:101A30006C696400444F4F522050415353574F52EA
:101A4000440000002DE9FF5F0E46DDE90E458046AB
:101A500017460021012000F0E1FA2978012000F06A
:101A600039FB6978012000F035FBA978012000F0EE
:101A700031FBE978012000F02DFBDFF89C914FF05D
:101A8000000B99F80400032827D0B8F1200F3CD0B0
:101A9000B8F12A0F39D0B8F1230F36D04FF0200A11
:101AA000B8F1440F33D021782A2007F8018021783B
:101AB00068542078401CC0B22070B04200D3304639
:101AC0002070C820FEF702FC2078B0421DD1002112
:101AD0005A4684F800B008462EE00121084600F07E
:101AE0009DFA4EA000F0EAFA47F23050FEF7EEFB06
:101AF0000121084600F092FA4BA000F0DFFA002125
:101B0000012000F08BFA89F804B0BDE8FF9F20782F
:101B10000028D9D0401EC1B2217007F801A0217859
:101B200005F801A0CDE7039B3C5C1B5CA34201D1FF
:101B3000491CC9B2401CC0B2B042F4D3B14248D132
:101B400089F804200122DFF8EC80D40321464046C6
:101B5000FEF783FDDFF8E0B04FF40059002249465C
:101B60005846FEF77AFD012211033448FEF775FD51
:101B70000021012000F052FA31A000F09FFAC820A5
:101B8000FEF7A4FB0020514603E039542954401CC1
:101B9000C0B2B042F9D3012249465846FEF75DFD76
:101BA00000224FF480512548FEF757FD41F288305E
:101BB000FEF78CFB0021012000F030FA24A000F099
:101BC0007DFA04B021464046BDE8F05F0022FEF7F2
:101BD00044BD99F804100120491C89F80410002123
:101BE00000F01CFA1EA000F069FA4FF42F70FEF707
:101BF0006DFB0020514603E039542954401CC0B20B
:101C0000B042F9D30021012000F008FA04B018A076
:101C1000BDE8F05F00F052BA000000205761747414
:101C2000696E672033307300202020202020202080
:101C3000202020000008014000100140000C01405D
:101C40002020202D2D556E6C6F636B2D2D00000014
:101C500020202020202020202020202020000000E4
:101C600077726F6E672070617373776F7264210093
:101C70002020202020202020202020202020200084
:101C800070B50C4641280AD0442812D000254328BC
:101C900023D0422802D107200870157070BD04209F
:101CA000087000F0B7F90021084600F0B7F917A056
:101CB00008E00520087000F0ADF90021084600F0AA
:101CC000ADF916A000F0FAF90021012000F0A6F904
:101CD000BDE8704015A000F0F1B900F09BF90021BB
:101CE000084600F09BF915A000F0E8F9002101205A
:101CF00000F094F9012020701548D0F80D10C0F8BC
:101D00000510C0F80910057070BD00004144442062
:101D10004E455720524649443A20000044454C4520
:101D2000544520524649443A2000000077617474BB
:101D3000696E6720636172642E2E2E0043555252E5
:101D4000454E2050415353574F52443A2000000013
:101D5000000000202DE9F0470D46DDE9084A8046E5
:101D6000994616460021012000F058F9002705E0A9
:101D7000F15D012000F0AEF97F1CFFB2AF42F7D356
:101D8000B8F1200F5AD0B8F12A0F57D0B8F1230F6D
:101D900054D02027B8F1440F17D0217806F80180DD
:101DA0002078401CC0B22070A84200D32846207082
:101DB000C820FEF78BFA2078A8423FD14FF00008E8
:101DC00084F80080414640460EE020780028F2D09A
:101DD000401EC0B220703754EAE7335C491C09F852
:101DE0000030401CC9B2C0B2A842F6D3A94225D1E6
:101DF0000021012000F012F911A000F05FF94FF46A
:101E0000FA60FEF763FA0021012000F007F90FA045
:101E100000F054F9002002E03754401CC0B2A84240
:101E2000FAD38AF8008000F0F5F80021084600F0A7
:101E3000F5F8BDE8F04708A000F040B9BDE8F0872C
:101E40005375636365737321000000002020202018
:101E50002020202000000000444F4F5220504153CA
:101E600053574F5244000000FEE70907090E0028AF
:101E700004DB00F1E02080F80014704700F00F0050
:101E800000F1E02080F8141D704702E008C8121F1E
:101E900008C1002AFAD170477047002001E001C153
:101EA000121F002AFBD170472DE9F047574E20241E
:101EB000002202213046FEF7D0FB0A20FEF706FA88
:101EC000534DA70139462846FEF7C2FB4FF48069FF
:101ED00078B149462846FEF7BBFB60B1022128468F
:101EE000FEF7B6FB48B101212846FEF7B1FB30B141
:101EF00006E0312404E0322402E0332400E04124EF
:101F0000012202213046FEF7A8FB002204213046C0
:101F1000FEF7A3FB0A20FEF7D9F939462846FEF75B
:101F200097FB78B149462846FEF792FB60B1022143
:101F30002846FEF78DFB48B101212846FEF788FBB5
:101F400030B106E0342404E0352402E0362400E019
:101F50004224012204213046FEF77FFB00220821A3
:101F60003046FEF77AFB0A20FEF7B0F939462846DC
:101F7000FEF76EFB78B149462846FEF769FB60B173
:101F800002212846FEF764FB48B101212846FEF7EE
:101F90005FFB30B106E0372404E0382402E0392446
:101FA00000E04324012208213046FEF756FB4FF49F
:101FB0008058002241463046FEF74FFB0A20FEF7CC
:101FC00085F939462846FEF743FB78B1494628464D
:101FD000FEF73EFB60B102212846FEF739FB48B10F
:101FE00001212846FEF734FB30B106E02A2404E044
:101FF000302402E0232400E04424012241463046FC
:10200000FEF72BFB2046BDE8F087000000080140EA
:10201000000C01400121002000F05CB830B1012823
:1020200006D1C031C9B2002000F054B88031F9E7C0
:102030007047000070B54FF4FA70FEF747F91D4C79
:1020400000224FF480712046FEF707FB0122510267
:102050002046FEF702FB002221152046FEF7FDFA7E
:102060000022E1142046FEF7F8FA134C00224FF448
:1020700080412046FEF7F1FA0122D5032946204689
:10208000FEF7EBFA002229462046FEF7E6FA282161
:10209000002000F01FF80C21002000F01BF80621A2
:1020A000002000F017F8BDE870400121002000F08A
:1020B00011B8000000080140000C014010B50446B2
:1020C00003E0012000F006F8641C21780029F8D113
:1020D00010BD00002DE9F05F06460C460220FEF719
:1020E000F5F8394D4FF480410EB1012200E0002295
:1020F0002846FEF7B2FADFF8D4B020064FF40067A6
:1021000001D5012200E0002239465846FEF7A5FA23
:1021100060064FF4806801D5012200E000224146AC
:102120005846FEF79AFAA0064FF4007901D501222D
:1021300000E0002249465846FEF78FFAE0064FF4C9
:10214000807A01D5012200E0002251465846FEF770
:1021500084FA0122D60331462846FEF77EFA002291
:1021600031462846FEF779FA200701D5012200E022
:10217000002239465846FEF770FA600701D5012261
:1021800000E0002241465846FEF767FAA00701D555
:10219000012200E0002249465846FEF75EFAE007B9
:1021A00001D0012200E0002251465846FEF755FAC0
:1021B000012231462846FEF750FA31462846BDE84E
:1021C000F05F0022FEF749BA000C01400008014010
:1021D0000EB500F06FF9FEF753FAFFF72CF8FEF793
:1021E0000FFFFEF795FFFFF78DF8FFF723FFDFF8EE
:1021F000CCB14FF4005A012251465846FEF72DFA51
:1022000000224FF480516E48FEF727FAFFF702FFD5
:102210006CA0FFF753FF00210120FFF7FFFEDFF85E
:10222000B4810026A8F109076B4D07F102093C466D
:10223000FFF73AFE60702A2802D023280CD01BE05A
:10224000A078C8B1A6702670FFF7E4FE002108460A
:10225000FFF7E4FE5BA009E00320A0702670FFF703
:10226000D9FE00210846FFF7D9FE5CA0FFF726FF44
:1022700000210120FFF7D2FEA07808285FD2DFE816
:1022800000F004695F7581878D94CDE90078514A2B
:10229000AB1D121F04216078FFF7D4FB4D492620A7
:1022A0000831FFF76FF8002849D14A480830FEF797
:1022B000FCFF00287ED14748083000F0DFF8A0F589
:1022C0007F41FF3976D00122D1034948FEF7C5F995
:1022D000002251465846FEF7C0F901221103384842
:1022E000FEF7BBF900210120FFF798FE41A0FFF7A0
:1022F000E5FEC820FDF7EAFF012251465846FEF7E9
:10230000ACF900224FF480512D48FEF7A6F941F2B6
:102310008830FDF7DBFF00210120FFF77FFE39A0A9
:10232000FFF7CCFE00224FF400413148FEF795F94B
:10233000D4F80D00C4F80500C4F80900267039E08F
:10234000CDE90079234AAB1D121F04216078FFF705
:1023500001FD2FE0CDE900791E4ACDF80880AB1DC4
:10236000121F04216078FFF769FA23E0CDE90079B4
:10237000184ACDF80880AB1C121F04216078FFF7C3
:102380004BF917E013491448C91FFFF7E1F811E0B2
:1023900010491148C91FFFF7F5FA0BE00D4A6078A4
:1023A000921F511EFFF76CFC04E00A49C91F481C2C
:1023B000FFF7E6F96420FDF789FF39E700100140D7
:1023C000000C0140444F4F522050415353574F523D
:1023D00044000000090000202800002041444D492D
:1023E0004E2050415353574F52443A2000000000B2
:1023F000000801402020202D2D556E6C6F636B2D41
:102400002D0000002020202020202020202020201F
:102410002020000009490A88642A01D3002070475F
:1024200002EB82020A440368C2F80A300079907312
:102430000888401C08800120704700002800002008
:1024400010B500F01BF8A0F57F41FF3912D000EB6A
:10245000800109480A180188491E89B2018001EBF0
:1024600081010844D0F80A10C2F80A10807B9073EA
:10247000012010BD002010BD2800002070B50646C8
:1024800000240B4D0BE000BF04EB84004119052232
:1024900030460A31FDF76AFE38B1641CA4B22888C0
:1024A000A042F1D84FF6FF7070BD204670BD00000D
:1024B0002800002010B54FF4FF7209490948FEF7C3
:1024C00075FD07480188642909D30021018006A110
:1024D0000968C0F8021004A10968C0F8061010BD10
:1024E0002800002000FC01083132333400000000D5
:1024F00010B5064C2046FEF746FD2046BDE81040CC
:102500004FF4FF720249FEF75FBD000000FC0108B6
:102510002800002000000000000000000102030469
:1025200006070809442500080000002028000000D4
:102530008A1E00086C25000828000020780600008C
:102540009A1E0008000000000020202020202020EB
:1025500020202020200000000000000001000000DA
:0C25600010000000000000000024F40047
:04000005080000ED02
:00000001FF
